:1000000000308A00C32800000030F8000538920054
:100010007C308316920083122311230883168700F5
:10002000831207110C30970083169B019C0101304D
:100030009D008312A3102308831687008312871064
:100040000C309D009B0195018A110A12DA28243098
:1000500084008313000803193A280630F800F701DA
:10006000F70B3028F80B2F287B30F700F70B3628DA
:10007000800B2D2808002310230883168700831285
:100080000710A31123088316870083128711240801
:100090009B0025089500080023102308831687007D
:1000A00083120714A3112308831687008312871570
:1000B00024089B00250895000800221C8D2806189E
:1000C000632822105F28A401A5013B20061A6D2891
:1000D0001E30A400A5003B206628861A74281E3016
:1000E000A400A5004C206D28861980282310230821
:1000F000831687008312071432309B009500742802
:1001000006198C28A31123088316870083128715EC
:1001100032309B00950080285D288A110A12DF2862
:100120002218C0288618962822149228A401A50116
:100130003B20061AA0286430A400A5003B20992883
:10014000861AA7286430A400A5004C20A028861990
:10015000B328231023088316870083120714323034
:100160009B009500A7280619BF28A3112308831612
:1001700087008312871532309B009500B3289028A2
:100180008A110A12E32803081F398300FF30A300F5
:10019000831603170908C039890003131F129F1221
:1001A00000300317880083128701880189018313B7
:1001B000031304282214C830A40027205D28C83067
:1001C000A40027209028C830A4002720DA28630044
:04400E00F22CFF3F52
:00000001FF
;PIC16F887
;CRC=3AA9  CREATED="13-Jul-22 22:42"
